:020000040040BA
:10000000908A422051124000DD124000B913400096
:10001000DD124000DD124000DD1240000000000053
:10002000000000000000000000000000DD124000A1
:10003000DD12400000000000DD124000DD12400033
:10004000DD124000DD124000DD124000DD124000F4
:10005000DD124000DD124000DD124000DD124000E4
:10006000DD12400000000000DD124000DD12400003
:10007000DD124000DD124000DD124000DD124000C4
:10008000DD124000DD124000DD124000DD124000B4
:10009000DD124000DD124000DD124000DD124000A4
:1000A000DD124000DD124000DD124000DD12400094
:1000B000DD124000DD124000DD124000DD12400084
:1000C000DD124000DD124000DD124000DD12400074
:1000D00000000000DD12400000000000DD124000C2
:1000E000DD124000DD124000DD124000DD12400054
:1000F000DD124000DD124000DD124000DD12400044
:10010000DD124000DD124000DD124000DD12400033
:10011000DD124000000000000000000000000000B0
:10012000DD124000DD124000DD124000DD12400013
:10013000DD12400000000000DD124000DD12400032
:1001400010B5054C237833B9044B13B10448AFF311
:1001500000800123237010BDB8094020000000007A
:100160009C8D40000C4B43B10C480D4910B5AFF3CA
:1001700000800C48036823B910BD0A48036833B9EE
:100180007047094B002BF7D0BDE810401847064BCD
:10019000002BF5D0184700BF000000009C8D4000E8
:1001A000BC0940209C8D40000000000080B483B05A
:1001B00000AF786039607B683A681A607B683A689B
:1001C0001A6100BF0C37BD4680BC704780B483B055
:1001D00000AF786039607B683A681A607B683A687B
:1001E0005A6100BF0C37BD4680BC704780B483B0F5
:1001F00000AF786039607B683A681A6300BF0C37DB
:10020000BD4680BC704780B483B000AF7860396071
:100210007B683A68C3F8902000BF0C37BD4680BCAD
:10022000704780B483B000AF786039607B683A680B
:100230005A6600BF0C37BD4680BC704780B483B09F
:1002400000AF786039607B683A681A6600BF0C3787
:10025000BD4680BC704780B483B000AF7860396021
:100260007B683A68C3F88C2000BF0C37BD4680BC61
:10027000704780B483B000AF786039607B683A68BB
:10028000C3F8842000BF0C37BD4680BC704780B4E3
:1002900083B000AF786039607B683A681A6200BF4B
:1002A0000C37BD4680BC704780B483B000AF786027
:1002B00039607B683A68C3F8C02000BF0C37BD4680
:1002C00080BC704780B483B000AF786039607B68D1
:1002D0003A68C3F8D02000BF0C37BD4680BC7047D9
:1002E00080B485B000AFF860B9607A60FB68BA6826
:1002F0005A607B68032B43D801A252F823F000BF59
:10030000110340002F0340004B03400067034000EF
:10031000FB681A6FBB68DB431A40FB681A67FB680F
:100320005A6FBB68DB431A40FB685A6728E0FB68DA
:100330001A6FBB681A43FB681A67FB685A6FBB6881
:10034000DB431A40FB685A671AE0FB681A6FBB6808
:10035000DB431A40FB681A67FB685A6FBB681A4395
:10036000FB685A670CE0FB681A6FBB681A43FB68AE
:100370001A67FB685A6FBB681A43FB685A6700BF6D
:1003800000BF1437BD4680BC704700BF80B500AFCA
:100390000A20A24B98470B20A04B98470C209F4B5C
:1003A000984710209D4B984711209C4B984700225E
:1003B0004FF480119A489B4B984700224FF400114C
:1003C0009748984B984700224FF480019448954BEA
:1003D000984700224FF400019148924B9847002221
:1003E0004FF080718E488F4B984700224FF000717C
:1003F0008B488C4B984700224FF080618848894B8E
:10040000984700224FF000618548864B98470022AC
:100410004FF080518248834B984700224FF00051A3
:100420007F48804B984702224FF400517E487D4B15
:10043000984700224FF0004179487A4B98470222B2
:100440004FF480217948774B984702224FF480116E
:100450007648744B9847022201217448714B9847A3
:10046000002201216E486F4B9847002202216C4800
:100470006C4B98470022042169486A4B9847002238
:1004800008216748674B9847002210216448654B54
:100490009847002220216248624B98470022402161
:1004A0005F48604B9847002280215D485D4B98472C
:1004B000002201215E485B4B9847002202215C48E4
:1004C000584B9847002204215948564B9847002220
:1004D00008215748534B9847002210215448514B4C
:1004E00098470022202152484E4B984700224FF453
:1004F00000414E484B4B984700224FF480314B4807
:10050000484B984702224FF480414748454B984753
:1005100002224FF400014448424B984702224FF414
:10052000003141483F4B984702224FF480313E480A
:100530003C4B984702224FF000513B48394B9847BB
:1005400000224FF480213648364B984702224FF460
:1005500000413548334B984700224FF480413048E2
:10056000304B984700224FF400612D482D4B98479F
:1005700000224FF480712A482A4B98474FF00041DF
:1005800029482C4B98474FF0004127482A4B984761
:100590004FF400412248294B98474FF4004120482E
:1005A000274B98474FF400411D48264B984702229D
:1005B0004FF480011D481B4B984720211A481D4BC2
:1005C0009847402118481B4B984702211648194B61
:1005D000984710211448194B984710211248184B7E
:1005E000984710211048174B98474FF480710E48D8
:1005F000124B98474FF480710B48114B98474FF4BA
:10060000807109480F4B9847042108480B4B9847C5
:10061000042106480A4B9847042115E06D0A400062
:1006200000120E40E102400000140E40000E0E4089
:1006300000160E40AD014000ED014000CD0140002C
:10064000070240003D0240009A489B4B9847012218
:1006500002219848994B98474FF000519548984B84
:1006600098474FF480619748954B98474FF4003175
:100670009548934B984701219448954B9847012101
:100680009248944B984701219048934B98470121F9
:100690008E48924B984701218C48914B98470121F5
:1006A0008A48904B9847012188488F4B98470421EE
:1006B0008448834B9847042182488C4B98470022FA
:1006C00008217C487D4B98470022102179487B4BBC
:1006D0009847874B04229A61032204217B48774B79
:1006E000984700224FF000417248744B984701220E
:1006F0004FF000617348714B984701224FF480011D
:1007000070486E4B984701224FF480116D486B4B37
:10071000984701224FF400116A48684B98474FF4FC
:1007200000716948664B984700224FF40071614898
:10073000624B984700224FF480615E485F4B9847B8
:100740004FF400715F48624B98474FF400715D4869
:10075000604B98474FF4805156485D4B98474FF493
:10076000805154485B4B98474FF400515148584BC7
:1007700098474FF480414F48554B98474FF400013C
:100780004C48534B98474FF080714A48504B98471C
:100790004FF080714B484E4B98474FF08061454871
:1007A0004B4B98474FF400614248494B98474FF4F0
:1007B00000214448464B98474FF400613D48404B68
:1007C00098474FF080513B48414B984780213D4826
:1007D0003F4B984780213B48464B984780213948FA
:1007E000354B98474FF080413248394B98470222A9
:1007F0004FF480213348314B984702220821314879
:100800002E4B98474FF400612E482D4B98474FF4DC
:1008100080512C482A4B98474FF480512948334B3C
:10082000984700224FF080512648244B98470122D8
:100830004FF000412348214B98474FF48031224824
:10084000234B98472C4B2022C3F814212A4B2B4AC8
:100850001A64294B294A5A64274B284A9A64264B22
:10086000264ADA64244B254A1A65234B234A5A65E3
:10087000214B224A9A65204B204ADA651E4B1F4ABB
:100880001A664FF4002110480D4B98474FF48061D1
:100890000D480B4B984720210C48094B98470022E4
:1008A00020210448054B9847002240210148034B72
:1008B000984725E0000E0E403D024000E102400056
:1008C000AD01400000140E4000120E4000100E401A
:1008D000CD01400023024000A9024000C5024000B3
:1008E0008F0240005702400073024000ED014000BB
:1008F00000C00340070240000080084002000100E1
:100900001B4A1B4B5B6943F001035361194A184BA7
:100910005B6943F001035361154A154B5B6943F072
:1009200040035361124A124B5B6943F48073536175
:100930000F4A0F4B5B6943F0020353610C4A0C4BA7
:100940005B6943F0040353610A4A0A4B5B6943F055
:1009500008035361074A074B5B6943F02003536167
:10096000044A044B5B6943F00203536100BF80BD3E
:1009700000C003400040064080B500AF72B60A4B8D
:100980000A4A9A600A200A4B9847074B094A1A609C
:100990006420074B9847044B074A9A600A20074B8C
:1009A000984762B600BF80BD00180E40000500A544
:1009B000390A4000080000A5010500A5FD09400016
:1009C00080B485B000AF78600023FB607B68FB607B
:1009D0000BE000BF00BF00BF00BF00BF00BF00BFF3
:1009E00000BF00BFFB68013BFB60FB68002BF0D140
:1009F00000BF1437BD4680BC7047000080B584B08E
:100A000000AF78607B68002B0ED07B68FB6007E04E
:100A1000074B1B681846074B9847FB68013BFB6078
:100A2000FB68002BF4D100E000BF1037BD4680BD4D
:100A300000004020C109400080B584B000AF78605C
:100A40000023FB607B68FB6006E04FF47A70064B86
:100A50009847FB68013BFB60FB68002BF5D100BFAA
:100A60001037BD4680BD00BFFD09400080B483B093
:100A700000AF78607B681F2B13D8184B9A6901214F
:100A80007B6801FA03F31A4001217B6801FA03F342
:100A90009A421ED0114A01217B6801FA03F31361C7
:100AA00017E07B68203B7B600C4BD3F808210121C9
:100AB0007B6801FA03F31A4001217B6801FA03F312
:100AC0009A4206D0054A01217B6801FA03F3C2F875
:100AD000003100BF0C37BD4680BC704700060E4099
:100AE00080B400AF284B294A1A60294B1B6A03F0D7
:100AF0008073002B09D1264B264A1A6200BF244B73
:100B00009B6E03F00103002BF9D0214B224A1A629D
:100B100000BF1F4B9B6E03F48033002BF9D01C4B9E
:100B20001E4A9A6200BF1A4B9B6E03F00203002B11
:100B3000F9D0174B40F211121A6300BF144B9B6E91
:100B400003F00803002BF9D0114B4FF489721A639C
:100B500000BF0F4B9B6E03F00803002BF9D00C4B2A
:100B60004FF44412DA6100BF094B9B6E03F040035F
:100B7000002BF9D0064B01229A63054B20221A6004
:100B800000BFBD4680BC7047000C0E40000700044B
:100B900000060E400908370009083701013F3120DF
:100BA00080B400AF094B1B68002B0BD0084A084BE0
:100BB000DB6843F08073D360044B00225A60034B20
:100BC00000221A6000BFBD4680BC7047001000E0E4
:100BD000F0ED00E080B400AF044A044B1B6843F022
:100BE0000103136000BFBD4680BC7047001000E0E9
:100BF00080B400AF044A044B1B6823F00103136068
:100C000000BFBD4680BC7047001000E080B400AF5C
:100C1000024B5B681846BD4680BC7047001000E080
:100C200080B485B000AF0346FB71154BD3F8B43FD9
:100C3000FB60144A134BDB6843F08073D360FB689E
:100C400003F00103002B15D0FB79002B09D0FB68C2
:100C500003F00203002B0DD0094B0B4AC3F8B02F51
:100C600008E0FB6803F00203002B03D1044B0022D1
:100C7000C3F8B02F00BF1437BD4680BC704700BF1B
:100C8000001000E0F0ED00E055CEACC590B583B0AB
:100C900000AF01201F4B98471F4B98471F4B9847A9
:100CA0006423FB8007E01E4B1B6818461D4B9847CA
:100CB000FB88013BFB80FB88002BF4D11A4B984743
:100CC0001A4B98470346B3F57A7F03D2144B2A2276
:100CD0001A6014E0124B1B68154A02FB03F4134B15
:100CE00098470346B4FBF3F30D4A13600C4B1B68A3
:100CF000104AA2FB03235B090133094A1360084B26
:100D00001B6819460C480D4B984700BF0C37BD4671
:100D100090BD00BF210C4000A10B4000D50B40004E
:100D200000004020C1094000F10B40000D0C4000C4
:100D3000C0C62D001F85EB5108874000111D4000E3
:100D400080B584B000AFF860B9607A603B607868C5
:100D5000034B9847034618461037BD4680BD00BF79
:100D60001111400080B586B000AFF860B9607A60BC
:100D70003B603B687B617B683B610AE03B695A1CD6
:100D80003A611B7819460748074B98477B69013B36
:100D90007B617B69002BF1D13B6818461837BD4653
:100DA00080BD00BF00080E40B510400080B483B085
:100DB00000AF78603960002318460C37BD4680BC10
:100DC000704780B485B000AFF860B9607A603B606E
:100DD000002318461437BD4680BC704780B485B0E8
:100DE00000AFF860B9607A607B684FF400525A60D7
:100DF000002318461437BD4680BC704780B483B0CA
:100E000000AF7860012318460C37BD4680BC7047A0
:100E100080B483B000AF4FF0E0437B607B6800227A
:100E20001A607B681B68002B0CD17B68094A1A602A
:100E30007B681B68074A934206D1074B4FF08072CC
:100E40001A6002E000BF00E000BF0C37BD4680BC66
:100E5000704700BF78563412300A402080B584B005
:100E600000AF786039601D4B1B68002B02D11B4B13
:100E70001B4A1A60194B1B68FB60FB68B3F1E04F1B
:100E800012D2FA683B681344164A93420CD9164BA7
:100E90001B68002B01D1154B9847104B4FF0E042D7
:100EA0001A600E4B1B68FB60FA683B681A440E4BD5
:100EB0001B6803F1E0439A4204D30D4B0C221A60E5
:100EC000002306E0054B1A683B681344034A13608D
:100ED000FB6818461037BD4680BD00BFD4094020CE
:100EE00000004420FFFF4520300A4020110E400042
:100EF000680A402080B489B000AFF8607A603B6037
:100F00000B46FB720123FB6101237B610A23BB615A
:100F10000023FB72FB68284AC3F8E42036E0FB7A22
:100F2000C3F102031A467B6803FB02F3DB003A6855
:100F3000B2FBF3F3FB61FB7AC3F102031A467B6851
:100F400003FB02F33A68B2FBF3F2FB69DB00D31A4E
:100F50007B61FB69DA007B6913443A68B2FBF3F307
:100F6000FA7AC2F10202B3FBF2F33B617B686422BE
:100F700002FB03F23B69B2FBF3F3C3F16403BB6111
:100F8000BB69052B02D9FB7A0133FB72BB69052BC8
:100F9000C5D8FB699AB2FB681A62FB68FA691A62E3
:100FA000FB685B68FA7AD2041A43FB685A6000BF98
:100FB0002437BD4680BC70470041535590B585B07D
:100FC00000AFF860B9607A6007200D4B9847FB6866
:100FD0004FF400625A60FB684FF4D6721A60FB68E7
:100FE0004FF0FF32DA607B68BA680021F868054C80
:100FF000A047FB6850221A6000BF1437BD4690BD61
:101000006D0A4000F50E400080B483B000AF7860F8
:101010007B685B6903F0010318460C37BD4680BC52
:101020007047000080B500AF104A104BD3F8143160
:1010300043F01003C2F814310D4A4FF4E1310D486A
:101040000D4B98470D4B00221A600D4B01221A7070
:10105000084B50221A600A4B00221A70094B98471D
:1010600009480A4B984700BF80BD00BF0080084078
:1010700080D1F00800080E40BD0F4000D809402084
:10108000DC094020A91140004C8740007511400048
:1010900080B400AF00BF064B5B6903F40073002B04
:1010A000F9D0034BA0221A6000BFBD4680BC704738
:1010B00000080E4080B582B000AF78600B46FB7030
:1010C000FB780A2B03D10D210848FFF7F3FF00BF7F
:1010D0007B685B6903F40073002BF9D0FA787B68B6
:1010E000DA6100BF0837BD4680BD00BF00080E4072
:1010F00080B483B000AF786000BF7B685B6903F4A5
:101100000073002BF9D000BF0C37BD4680BC704780
:1011100080B582B000AF786009480A4B9847034613
:10112000002B01D1002307E00548074B98470346F1
:101130001A467B681A70012318460837BD4680BDE1
:1011400000080E40091040004D11400080B483B0EB
:1011500000AF786000BF7B685B6903F00103002B80
:10116000F9D07B689B69DBB218460C37BD4680BC62
:101170007047000080B582B000AF786007E07B6800
:101180005A1C7A601B7819460548064B98477B68BD
:101190001B78002BF3D100BF0837BD4680BD00BFD0
:1011A00000080E40B510400080B500AF1B21084874
:1011B000084B98475B210648064B98473221044864
:1011C000044B98474A210248024B984700BF80BD14
:1011D00000080E40B510400080B483B000AF7860C6
:1011E00039607B683A681A607B683A681A6100BFA8
:1011F0000C37BD4680BC704780B483B000AF7860C8
:1012000039607B683A681A6300BF0C37BD4680BC02
:10121000704780B483B000AF786039607B683A680B
:101220005A6300BF0C37BD4680BC704780B400AF26
:10123000064A064B1B6843F470031360BFF34F8FDD
:10124000BFF36F8F00BFBD4680BC704788ED00E0E4
:1012500080B582B000AF174B7B60174B3B607A685C
:101260003B689A420CD007E03B681A1D3A607A68E6
:10127000111D796012681A603B68104A9342F3D3DB
:101280000F4B3B6004E03B681A1D3A6000221A6075
:101290003B680C4A9342F6D30B4B7B600B4A7B684E
:1012A00023F07F0393600A4B98470A4B98470A4BF9
:1012B0009847FEE79C8D400000004020B809402080
:1012C000B8094020900A40200000400000ED00E0F6
:1012D0002D124000251C4000C119400080B500AF10
:1012E0004FF400212348244B98470A20234B98476A
:1012F00000224FF400712248224B984700224FF4FD
:1013000080611F481F4B98471F4A1F4BD3F8143169
:1013100043F01003C2F814311C4B1B6BB3F5897FEB
:1013200006D11B4A4FF4E1311A481B4B984705E0A0
:101330001A4A4FF4E1311748174B9847184B984712
:101340001848194B98474FF400210A480A4B984710
:101350004FF400210748154B98470A20144B984733
:101360004FF400210348134B98470A20104B98472D
:10137000E9E700BF00120E40D91140006D0A40009D
:10138000000E0E40E10240000080084000060E40C2
:1013900080D1F00800080E40BD0F4000001BB700D0
:1013A000A911400050874000751140001312400001
:1013B000390A4000F911400080B500AF924B9847C0
:1013C0004FF400219148924B98470A20914B98473F
:1013D00000224FF400719048904B984700224FF440
:1013E00080618D488D4B98478D4A8D4BD3F81431D1
:1013F00043F01003C2F814318A4B1B6BB3F5897F9D
:1014000006D1894A4FF4E1318848894B984705E075
:10141000884A4FF4E1318548854B98478648874B89
:101420009847874BDB6A1A4686498748874B984717
:101430008548824B9847824BDB6A03F08043002B40
:1014400000F0C88082487D4B98477D4B9A6A814B5B
:101450001340002B38D08048784B9847784B9B6AD4
:1014600003F48033002B02D07C48744B9847744BB4
:101470009B6A03F40033002B02D079486F4B9847E6
:101480006F4B9B6A03F40023002B02D075486B4B13
:1014900098476B4B9B6A03F40023002B02D07248E1
:1014A000664B9847664B9B6A03F08073002B02D013
:1014B0006E48624B9847624B9B6A03F00073002BA7
:1014C00002D06B485D4B98475D4B9B6A03F47F43AA
:1014D000002B41D06748594B9847594B9B6A03F4FE
:1014E0008073002B02D06448544B9847544B9B6A3E
:1014F00003F40073002B02D06048504B9847504BC8
:101500009B6A03F48063002B02D05D484B4B9847E5
:101510004B4B9B6A03F40063002B02D05948474BA6
:101520009847474B9B6A03F48053002B02D05648E0
:10153000424B9847424B9B6A03F40053002B02D066
:1015400052483E4B98473E4B9B6A03F40043002BA6
:1015500002D04F48394B9847394B9B6ADBB2002B7E
:1015600038D04C48354B9847354B9B6A03F0010304
:10157000002B02D04848314B9847314B9B6A03F00F
:101580000203002B02D045482C4B98472C4B9B6AFA
:1015900003F00803002B02D04148284B9847284B02
:1015A0009B6A03F01003002B02D03E48234B984760
:1015B000234B9B6A03F02003002B02D03A481F4BB9
:1015C00098471F4B9B6A03F08003002B02D03748DB
:1015D0001A4B98471548364B98474FF400210B4853
:1015E0000B4B98474FF400210848324B9847642032
:1015F000314B98474FF400210448304B9847642002
:101600002D4B9847E9E700BF9110400000120E40B3
:10161000D91140006D0A4000000E0E40E10240006A
:101620000080084000060E4080D1F00800080E40FF
:10163000BD0F4000001BB7006887400075114000D7
:1016400000ED00E080874000E0094020391D4000A7
:10165000988740000000FFFFAC874000BC87400037
:10166000D4874000E4874000F88740000C884000A1
:10167000288840003C88400048884000608840003E
:10168000748840008888400098884000A8884000FE
:10169000CC884000E8884000008940002089400054
:1016A000388940005889400078894000AC89400062
:1016B000F110400013124000390A4000F9114000B7
:1016C00080B400AF034B044A1A6000BFBD4680BC23
:1016D000704700BF0400402000093D0080B400AF07
:1016E000BFF34F8FBFF36F8F084B0022C3F8502218
:1016F000064A064B5B6943F400335361BFF34F8FD7
:10170000BFF36F8F00BFBD4680BC704700ED00E0A7
:1017100080B400AFBFF34F8FBFF36F8F054B002234
:10172000C3F85022BFF34F8FBFF36F8F00BFBD468A
:1017300080BC704700ED00E080B48BB000AF254B5B
:10174000D3F88030FB61FB695B0BC3F30E037B6254
:10175000FB6903F007030433BB61FB69DB08C3F3D8
:1017600009037B617B69BB60BB68B3FA83F37B6071
:101770007B68DBB203F01F033B61BFF34F8F154A59
:10178000144B5B6923F4803353617B693B623A6A93
:101790003B6902FA03F319467A6ABB6902FA03F35A
:1017A0000B43FB600B4AFB68C2F874323B6A5A1E5B
:1017B0003A62002BEBD17B6A5A1E7A62002BE4D18D
:1017C000BFF34F8FBFF36F8F00BF2C37BD4680BC78
:1017D000704700BF00ED00E080B48BB000AF224B3B
:1017E000D3F88030FB61FB695B0BC3F30E037B62B4
:1017F000FB6903F007030433BB61FB69DB08C3F338
:1018000009037B617B69BB60BB68B3FA83F37B60D0
:101810007B68DBB203F01F033B61BFF34F8F7B6933
:101820003B623A6A3B6902FA03F319467A6ABB697A
:1018300002FA03F30B43FB600B4AFB68C2F8603209
:101840003B6A5A1E3A62002BEBD17B6A5A1E7A62BF
:10185000002BE4D1BFF34F8FBFF36F8F00BF2C3746
:10186000BD4680BC704700BF00ED00E080B483B08F
:1018700000AF786039607B683A681A6300BF0C3744
:10188000BD4680BC704780B483B000AF78603960DB
:101890007B683A685A6300BF0C37BD4680BC70470E
:1018A00080B483B000AF78607B684FF400425A6028
:1018B00000BF0C37BD4680BC7047000080B500AF4C
:1018C0004FF400210248034B984700BF80BD00BF82
:1018D00000120E406D18400080B500AF4FF400219B
:1018E0000248034B984700BF80BD00BF00120E4066
:1018F0008718400080B582B000AF3E202B4B984740
:101900002B4B1022C3F824212A4B2B4A9A62294BD5
:1019100000225A62C820294B98474FF0E0433B60B1
:10192000244B01221A603B6800221A700120234BCD
:101930009847204B02221A603B6800221A7001204F
:101940001E4B98471B4B04221A6000237B6005E066
:101950003B6800221A707B6801337B607B68072B31
:10196000F6DD0120154B9847124B03221A603B68A5
:1019700000221A700120114B98470E4B00221A606A
:101980003B6800221A7001200C4B9847094B40F22B
:101990000D325A60074A074B9B6A43F48073936287
:1019A000002318460837BD4680BD00BF6D0A4000C1
:1019B0000080084000400840F99233A7FD0940002C
:1019C00080B586B000AF3F4B98473F4B98473F4BA1
:1019D00098473F4B98473F4B98473F483F4B984766
:1019E0003F4B98473F4B98473F4B98473F4B984753
:1019F0003F4B98473F48404B984740483E4B98479D
:101A00003F494048404B9847404B9847404B984788
:101A1000404B9847404B9847C820404B9847404B15
:101A20009847C8203D4B98477B237B614FF0E043AC
:101A30003B617B699AB23B691A804FF4FA60374B7D
:101A400098473B691B889BB2FB607A69F968354807
:101A50002D4B9847FA687B699A4205D12E4B9847DF
:101A60003148254B984704E02D4B98472F48224B8F
:101A700098474FF4DE73BB60BB689AB23B691A802B
:101A80004FF4FA60254B98473B691B889BB27B60FB
:101A9000BA68796826481C4B98477A68BB689A42AE
:101AA00005D11D4B98472348134B984704E01C4B26
:101AB00098472148104B98474FF47A70174B984736
:101AC000A8E700BFE10A4000C116400079094000C4
:101AD000D91740001117400050180E40A1184000BF
:101AE000FD1B4000DD1640008D0340002510400026
:101AF000A9114000D489400075114000D8894000E8
:101B000080D1F008008A4000111D40008D0C40007B
:101B1000F518400039174000BD184000390A400050
:101B2000D9184000108A40003C8A4000508A40008A
:101B3000688A4000988A4000AC8A400080B483B034
:101B400000AF7860034A7B68536000BF0C37BD4626
:101B500080BC704790ED00E080B483B000AF786047
:101B6000034A7B68936000BF0C37BD4680BC70475A
:101B700090ED00E080B400AF044A044B1B6923F0F1
:101B80000103136100BFBD4680BC704790ED00E0CB
:101B900080B483B000AF78603960054A7B68D36059
:101BA000034A3B68136100BF0C37BD4680BC7047D9
:101BB00090ED00E080B584B000AFF860B9607A6065
:101BC00072B6BFF34F8FBFF36F8FF868084B98471B
:101BD000084B98477968B868074B9847BFF34F8F11
:101BE000BFF36F8F62B600BF1037BD4680BD00BF28
:101BF000591B4000751B4000911B400080B500AF91
:101C0000054A4FF0C0410720044B98470720044B7A
:101C1000984700BF80BD00BF37000013B51B4000D0
:101C20003D1B400070B50F4E0F4D761BB61018BF10
:101C3000002405D0013455F8043B9847A642F9D159
:101C40000A4E0B4D761B07F093F8B61018BF002410
:101C500006D0013455F8043B9847A642F9D170BD2F
:101C600070BD00BF7C8D40007C8D4000848D4000A5
:101C70007C8D400070B4860746D0541E002A41D0A7
:101C8000CAB2034602E014F1FF343BD303F8012B40
:101C90009D07F8D1032C2ED9CDB245EA05250F2C8E
:101CA00045EA054519D903F110022646103E0F2ECC
:101CB00042F8105C42F80C5C42F8085C42F8045CA4
:101CC00002F11002F2D8A4F1100222F00F0204F087
:101CD0000F041032032C13440DD91E462246043A39
:101CE000032A46F8045BFAD8221F22F003020432CA
:101CF000134404F003042CB1C9B21C4403F8011BC3
:101D00009C42FBD170BC704714460346C2E700BF3B
:101D10000FB400B5074983B004AB086853F8042B2F
:101D20008168019301F032FB03B05DF804EB04B06D
:101D3000704700BF080040200EB4F0B59CB021AB46
:101D40000F4953F8042B019305466FF000440868CF
:101D500002954FF402774FF6FF7602A90695ADF88B
:101D6000147004940794ADF8166000F097F8029B85
:101D700000221A701CB0BDE8F04003B0704700BFED
:101D800008004020000000000000000000000000EB
:101D90000000000000000000000000000000000043
:101DA0000000000000000000000000000000000033
:101DB0000000000000000000000000000000000023
:101DC00090F800F06DE9024520F007016FF0000C7B
:101DD00010F0070491F820F040F049804FF0000423
:101DE0006FF00700D1E9002391F840F000F10800FE
:101DF00082FA4CF2A4FA8CF283FA4CF3A2FA8CF336
:101E00004BBBD1E9022382FA4CF200F10800A4FA9C
:101E10008CF283FA4CF3A2FA8CF3E3B9D1E90423F0
:101E200082FA4CF200F10800A4FA8CF283FA4CF327
:101E3000A2FA8CF37BB9D1E9062301F1200182FAE1
:101E40004CF200F10800A4FA8CF283FA4CF3A2FAE7
:101E50008CF3002BC6D0002A04BF04301A4612BAF5
:101E6000B2FA82F2FDE8024500EBD2007047D1E9F8
:101E7000002304F00305C4F100004FEAC50514F087
:101E8000040F91F840F00CFA05F562EA05021CBF58
:101E900063EA050362464FF00004A9E72DE9F04F1D
:101EA000C3B00C460B9192460F930C9004F042FA8B
:101EB00003681A931846FFF783FFA3891990190640
:101EC00003D52369002B01F0038000230DF1C8091D
:101ED0001393159314932793269318931B930993A5
:101EE000CDF89490C846169317939AF8003054464C
:101EF000E3B1252B02D119E0252B03D014F8013FC3
:101F0000002BF9D1A4EB0A0585B1269B279AC8F8C6
:101F100000A001332A44072BC8F8045027922693C7
:101F20007FDC08F10808099B2B4409932378002BD8
:101F30007FD000231A468DF8773019460D939B46C3
:101F40004FF0FF3063780A9004F1010A0AF1010AA8
:101F5000A3F12000582800F2C183DFE810F0380216
:101F6000BF03BF034002BF03BF03BF03BF03BF03E1
:101F7000BF0345020302BF035D006B02BF0386027D
:101F80009D039D039D039D039D039D039D039D0351
:101F90009D03BF03BF03BF03BF03BF03BF03BF0353
:101FA000BF03BF03BF0337035703BF035703BF0379
:101FB000BF03BF03BF039803BF03BF03AD03BF034A
:101FC000BF03BF03BF03BF035902BF03BF031E0309
:101FD000BF03BF03BF03BF03BF03BF03BF03BF03F1
:101FE000BF03BF03C602DB025703570357038B022D
:101FF000DB02BF03BF039002BF039D02CC01B4020A
:102000000802BF03E101BF037E00BF03BF030D024F
:102010000D980F9340420D904BF0040B9AF800304E
:1020200094E725AA0B990C9805F018FB40B9C8460F
:1020300079E7279B23B10C980B9925AA05F00EFB95
:102040000B9B9B8913F0400F099B18BF4FF0FF3388
:102050000993099843B0BDE8F08F1BF0200F11934E
:1020600040F0DD810F9A1BF0100F134640F06E8593
:102070001BF0400F00F06A8514880432002501230C
:102080000F9200278DF877700A994A1C00F065823C
:102090002BF08002079254EA050240F06482002986
:1020A00040F03C84002B40F0D7841BF001030E93DA
:1020B00000F0048642AE302306F8413D0A9B0E9A9A
:1020C0009342B8BF134608930023129317B1089B9D
:1020D00001330893079B13F00203109302D0089B6F
:1020E00002330893079B13F0840540F00E830D9B89
:1020F000089AA3EB020BBBF1000F40F30683BBF180
:10210000100F279C269A29DD43462146A846102712
:102110000C9C0B9D06E0ABF1100BBBF1100F03F113
:10212000080318DD0132B74826921031072A27919B
:1021300083E88100EFDD25AA2946204605F08EFAC6
:1021400000287FF47DAFABF1100BBBF1100F279986
:10215000269A4B46E6DC45460C4698460132A94B8A
:1021600026925C44072A279488E8080800F398849C
:102170009DF8777008F1080877B1269B0133013488
:102180000DF177010122072B2794269388E806009A
:1021900000F3DB8308F10808109B6BB1269B013329
:1021A00002341EA90222072B2794269388E80600F2
:1021B00000F3D68308F10808802D00F015830A9BF0
:1021C0000E9A9F1A002F36DD102F269B8E4D27DD8D
:1021D00042462146B0464FF0100B2E460C9C0B9DFC
:1021E00004E0103F102F02F1080215DD0133103119
:1021F000072B2791269382E84008F2DD25AA29467D
:10220000204605F02BFA00287FF41AAF103F102F5C
:102210002799269B4A46E9DC35460C4646469046B9
:1022200001333C44072B2794269388E8A00000F351
:10223000818308F10808079BDF0500F16882269B6F
:102240000E99C8F8006001330C44072B2794C8F896
:102250000410269300F34D8308F10808079B5B07E1
:102260003AD50D9B089A9D1A002D35DD102D269B21
:1022700020DD10260C9FDDF82CB004E0103D102D61
:1022800008F1080816DD01335E4A26931034072B47
:10229000279488E84400F1DD25AA5946384605F020
:1022A000DDF900287FF4CCAE103D102D279C269B35
:1022B000C846E8DC0133534A26932C44072B279465
:1022C00088E8240008DD25AA0B990C9805F0C6F9CA
:1022D00000287FF4B5AE279C099B0D9A08998A4285
:1022E000ACBF9B185B180993002C40F00D830023B2
:1022F0002693C846F9E511931BF0200340F0E381D3
:102300001BF0100240F02E841BF0400300F02A84E2
:102310000F9913460A4604320C880F920025B0E646
:102320000F9A1193166800248DF87740151D002E22
:1023300000F0A7860A9A531C00F009862146304611
:1023400004F04EFB002800F0E186831B0E930A94F4
:102350000F95CDF81CB023EAE373089312949DF80F
:102360007770B3E69AF8003001222B21EEE54BF0AE
:10237000200B9AF80030E9E51193002A40F0958788
:10238000224B18931BF0200F40F011810F9A1BF085
:10239000100F134640F0E1831BF0400F00F0DD8387
:1023A000043314880F9300251BF0010F00F00C81FB
:1023B00054EA050300F0088130239DF844208DF88D
:1023C00078308DF879204BF0020B022359E69AF809
:1023D000003000297FF4BAAD01222021B6E54BF090
:1023E000010B9AF80030B1E50F9C23680D93184655
:1023F0000028234603F10403FFF60AAE0F939AF870
:102400000030A3E50C8B40001C8B4000EC8A4000A0
:102410004BF0100B1BF0200F11933FF423AE0F9DD8
:10242000073525F0070303F10802D3E900450F92B1
:10243000012326E69AF800302A2B0AF1010400F065
:102440002787A3F130000928A24600F2AD860023B9
:102450001C461AF8013B04EB840400EB4404A3F18E
:1024600030000928F5D90A9472E54BF0800B9AF8F0
:1024700000306BE54BF0400B9AF8003066E59AF8B7
:1024800000306C2B03BF9AF801304BF0200B0AF19F
:10249000010A4BF0100B59E5002A40F011871BF0A0
:1024A000200F40F0F9841BF0100F40F0AC841BF0BB
:1024B000400F00F0A8840F9A136804320F92BDF801
:1024C00024201A8011E50F99B34B0C681893302221
:1024D000782304318DF8793011934BF0020B0F9172
:1024E00000258DF878200223CBE50F9911930A6817
:1024F0008DF8A02000230A461F468DF8773004325D
:1025000001230893CDF81CB00A9712970F920E93EF
:1025100028AEDFE51193002A40F0EA861BF0200F79
:102520005DD11BF0100F40F008831BF0400F00F04E
:1025300004830F99B1F900400431E51722462B4678
:102540000F91002A73F1000358DB0A999DF8777008
:102550004A1C4FF001037FF49BAD54EA050200F0E2
:10256000DF81CDF81CB0012B00F07B82022B40F004
:10257000068218984E46230904F00F0143EA0573BA
:102580002A091C461546435C06F8013D54EA05033A
:10259000F1D1A9EB06030E9390E51193002A40F0C8
:1025A000A3867E4B18931BF0200F3FF4EFAE0F9DD8
:1025B000073525F0070303F108021BF0010F0F9206
:1025C000D3E900457FF4F4AE02235AE51193002AC3
:1025D00040F086864BF0100B1BF0200FA1D00F9D12
:1025E000073525F00705D5E90023002A05F1080184
:1025F0001D4673F100030F911446A6DA2D2764429D
:1026000065EB45058DF8777001233DE51193002AB0
:1026100040F062860F9D073525F0070303F108029D
:102620000F921A6815925B681493149B159D23F002
:102630000044284621464FF0FF32594B05F074FE06
:10264000002840F04A83284621464FF0FF32544B81
:1026500005F04CFE002840F0408315A80DC81499E1
:1026600005F03AFE002840F030859DF877704D4E19
:102670004D4B2BF080000790119803220021089207
:102680000A914728D8BF1E460E9212911EE54BF0C4
:10269000080B9AF8003059E4A3F1300000231C46DF
:1026A0001AF8013B04EB840400EB4404A3F130006E
:1026B0000928F5D90D944BE44BF0100B11931BF046
:1026C00020033FF41DAE0F9D073525F0070303F1EE
:1026D0000802D3E900450F920023D2E41193002AA7
:1026E00040F0E785119A002A3FF4A3AC00230121B2
:1026F0001F4608918DF8A020CDF81CB08DF87730DA
:102700000A9312930E9128AEE4E4279C34E5119BC2
:10271000652B40F3A78015A80DC8149905F0D2FDCC
:10272000002800F05081269B204AC8F80020013381
:1027300001340122072B27942693C8F8042000F3C4
:102740006A8308F108081F9B139A279C934203DBB6
:10275000079BDD077FF582AD269B19991A9AC8F869
:10276000002001330C44072BC8F80410279426934B
:1027700000F39E8308F10808139B5E1E002E7FF76E
:102780006DAD102E269B0A4D40F3F5812246102791
:10279000DDF830B00B9C13E0EC8A4000D88A400092
:1027A000FFFFEF7FCC8A4000C88A4000088B4000C2
:1027B0001C8B400008F10808103E102E40F3DA810F
:1027C00001331032072B2792269388E8A000F1DD11
:1027D00025AA2146584604F041FF00287FF430AC7A
:1027E000279A269BC846E7E70D9B089A9F1A002F59
:1027F0007FF7E5AC102F269BB64D27DD42462146DC
:10280000B0464FF0100B2E460C9C0B9D04E0103F81
:10281000102F02F1080215DD01331031072B27912B
:10282000269382E84008F2DD25AA2946204604F0D6
:1028300015FF00287FF404AC103F102F2799269B2A
:102840004A46E9DC35460C464646904601333C4450
:10285000072B2794269388E8A00000F3328208F122
:102860000808ACE4139B269F012B40F3FE8101373F
:1028700001340123072F27942697C8F80060C8F871
:10288000043000F3038208F10808199A1A9BC8F86B
:10289000003001371444072F27942697C8F80420E6
:1028A00000F3008208F1080815A80DC8149905F076
:1028B00009FD139B002840F00181013B01370136DF
:1028C0001C44072F26972794C8F80060C8F80430E6
:1028D00000F3278108F108081B9AC8F80420013783
:1028E000144421AB072F27942697C8F800307FF7B0
:1028F000B3AC25AA0B990C9804F0B0FE00287FF425
:102900009FAB279CC846A9E425AA0B990C9804F014
:10291000A5FE00283FF4EBACFFF792BBDDF81CB03E
:10292000012B00F03481022B25D1CDF81CB00024FE
:1029300000251EE625AA0B990C9804F08FFE0028AE
:102940007FF47EAB279CC84675E425AA0B990C98AA
:1029500004F084FE00287FF473AB279CC8461BE478
:1029600025AA0B990C9804F079FE00287FF468AB37
:10297000279CC84620E4CDF81CB000240025494619
:1029800000E03146E20842EA4572E80804F0070335
:1029900005461446303354EA050201F8013C01F1C2
:1029A000FF36EED1079AD2077FF5F3AD302B3FF417
:1029B000F0AD0239302306F8013CA9EB01030E9378
:1029C0000E46FFF77BBB1F99002940F32E82129B16
:1029D000139A9342A8BF1346002B1F460DDD269B7A
:1029E000C8F8006001333C44072B2794C8F80470F2
:1029F000269300F31F8308F10808129B002FA8BF3D
:102A0000DB1B002B1F4640F3D680102F269B314D39
:102A100040F3ED8142462146B0464FF0100B2E4662
:102A20000C9C0B9D04E00832103F102F40F3DB811B
:102A300001331031072B2791269382E84008F2DDFD
:102A400025AA2946204604F009FE00287FF4F8AAAA
:102A50002799269B4A46E7E70A9B0E934E46FFF7C7
:102A60002DBB002D08BF0A2CC0F08F804E4620469B
:102A700029460A22002305F095FC303206F8012D84
:102A80002046294600230A2205F08CFC04460D4608
:102A900054EA0503EBD1A9EB06030E93FFF70EBB37
:102AA00025AA0B990C9804F0D9FD00287FF4C8AA38
:102AB0009DF87770279CC846FFF75EBB5E1E002E10
:102AC0007FF70AAF102E034D22DD22464FF0100B88
:102AD0000C9C06E01C8B4000103E102E08F10808EC
:102AE00015DD01371032072F2792269788E8200836
:102AF000F2DD25AA0B99204604F0B0FD00287FF4F2
:102B00009FAA103E102E279A269FC846E9DC14463D
:102B100001373444072F2794269788E860007FF711
:102B2000D9AE25AA0B990C9804F098FD00287FF4E3
:102B300087AA279C269FC846CEE60F9A146813469C
:102B40000433E5170F9322462B46FAE404321C683F
:102B50000F9201230025FFF794BA1C6804330F93EA
:102B6000002521E40F990A4604320C680F920025D3
:102B7000FFF787BA144601333444072B2794269372
:102B800088E860007FF768ABB3E6DDF81CB0CDF8ED
:102B90001CB042AE3034012306F8414D0E93FFF7CE
:102BA0008DBA25AA0B990C9804F058FD00287FF4E3
:102BB00047AA279CC8461F9A139B9A4244DB079B4F
:102BC000D90741D4139B12989A1A1D1A9542A8BF8F
:102BD0001546002D0EDD2699C8F804500131064433
:102BE0002C440729C8F800602794269100F33B8203
:102BF00008F10808002DACBF561B1646002E7FF7C3
:102C00002DAB102E269BB04DB5DD22461027DDF8EA
:102C100030B00B9C04E008F10808103E102EA9DD2E
:102C200001331032072B2792269388E8A000F2DDAB
:102C300025AA2146584604F011FD00287FF400AA79
:102C4000279A269BC846E8E7269B19981A99C8F840
:102C5000001001330444072B2794C8F8040026937E
:102C600000F3F58108F10808ACE7079BDA073FF5A8
:102C7000FEAD013701340123072F27942697C8F8AA
:102C80000060C8F804307FF725AE4AE725AA0B9903
:102C90000C9804F0E3FC00287FF4D2A9279C269F1F
:102CA000C846F2E525AA0B990C9804F0D7FC002839
:102CB0007FF4C6A9279C269FC846F5E54E46FFF738
:102CC000FDB925AA0B990C9804F0C8FC00287FF4E4
:102CD000B7A9279CC846FFF772BA159C2246204622
:102CE000149C2346214605F01FFB002840F08682F5
:102CF0000A9B0133119B23F020030E9300F0E28125
:102D0000472B00F01E814BF480730793149B1F1E0A
:102D1000159B0893BBBF3B4603F1004700232D23BF
:102D20001093119B662B00F0BB81462B00F0DF80D7
:102D30000E9B089A452B0CBF0A9B0A9D23A820A92D
:102D400008BF5D1C049003911FA802213B4602901E
:102D5000019500910C9801F00FFF119B672B06461F
:102D600040F0E0811BF0010F00F046827419169AC2
:102D70000898179B394605F0A5FA002840F06581B0
:102D8000239BA34206D230215A1C23921970239B05
:102D90009C42F9D89B1B13930E9B472B00F0E980B4
:102DA000119B652B40F3CD81119B662B1F9B1293CA
:102DB00000F09E81139B129A1946914200F38A817A
:102DC0001BF0010F40F0138222EAE273089367239D
:102DD0000E921193109B002B40F0C4800A939DF833
:102DE0007770FFF773B935460C4646469046013377
:102DF0003C44072B2794269388E8A0003FF7D1AEE8
:102E000008F10808D7E60F9A136804320F92099A5E
:102E10001A60FFF76AB825AA0B990C9804F01EFCFB
:102E200000287FF40DA9C8468DE4269B274AC8F8E0
:102E30000020013301340122072B27942693C8F880
:102E4000042072DC08F1080829B9139B1BB9079B01
:102E5000D8077FF503AA269B19981A9AC8F800206C
:102E6000013302462244072B2792C8F80400269318
:102E700000F38D8108F108080029C0F265811399DB
:102E8000C8F8006001338C18072B27942693C8F8E4
:102E900004107FF7E1A92CE50F9A09991368CD1763
:102EA0000846043229460F92C3E90001FFF71DB816
:102EB00025AA0B990C9804F0D1FB00287FF4C0A838
:102EC000279CC84658E400BF1C8B4000088B40007C
:102ED00040210C9803F0BCFA0B9A10601061002896
:102EE00000F0F2810B9A40235361FEF7EEBF23A856
:102EF00020A90A9C049003911FA803210290089A1C
:102F000001943B4600910C9801F036FE254606469A
:102F1000119B462B06EB05047FF429AF3378302B49
:102F200000F078811F9D2C4421E725AA0B990C986D
:102F300004F094FB00287FF483A81F99279CC846BF
:102F400082E70A9B002B08BF01230A93DBE6304689
:102F50000A94FEF735FF0F950E90CDF81CB003468E
:102F6000FFF7F9B92D2700238DF877700A93FFF743
:102F7000AEB81F9B12931A46033304DB0A9B194613
:102F80009142BFF617AF119B023B11939DF844305D
:102F90008DF88430129B013B002B1F93BDBF129B09
:102FA000C3F101032D222B22092B8DF8852040F33C
:102FB00016810DF193042046AB4D00E0104685FBD1
:102FC0000312D917C1EBA20101EB8102A3EB42026C
:102FD0003032092900F8012C0B4600F1FF32EDDCFC
:102FE00030330238D9B2844202F8011C40F26581C4
:102FF0000DF18600134601E013F8011B00F8011BD8
:10300000A342F9D101339B1A0DF18602134421AA80
:103010009B1A139A1B93012A13440E9340F31981B0
:103020000E9B199A13440E9323EAE373089300232B
:103030001293CFE625AA0B990C9804F00FFB0028F9
:103040007EF4FEAF279CC846D7E42346A2E625AA15
:103050000B990C9804F002FB00287EF4F1AF1F9A44
:10306000279CC846AEE525AA0B990C9804F0F6FA01
:1030700000287EF4E5AF1F9A139B279C9A1AC84636
:10308000B8E50A9B1296062B28BF06230A963746F8
:1030900008930F95CDF81CB00E93744EFFF716B839
:1030A00023A820A90A9D049003911FA80321029040
:1030B000089A01953B4600910C9801F05DFD06468B
:1030C00044192BE706230A931DE62D278DF8777008
:1030D000FFF7CDBA199A139B1344129A0E93002A44
:1030E00040F3B08023EAE37308936723119371E6FA
:1030F000002B40F3C3800A9A002A40F099801BF00D
:10310000010F40F0958008930E9363E60A9B0893A5
:103110000E930A900F95CDF81CB012909DF8777021
:10312000FEF7D4BF119B472B7FF420AE1BF0010F9D
:103130007FF4EEAE239B9B1B13930E9B472B3FF418
:1031400018AF1F9B129321E74F421031484D2FDAE1
:103150001024DDF830B004E008F10808103F102F0B
:1031600026DD01331032072B27922693C8F8005032
:10317000C8F80440F0DD25AA0B99584604F06EFA11
:1031800000287EF45DAF279A269BC846E6E725AA6D
:103190000B990C9804F062FA00287EF451AF1F9945
:1031A000279A269BC84667E600200A90FEF7D0BE05
:1031B00001333A44072B88E8A0002792269308F1B0
:1031C00008087FF75CAE25AA0B990C9804F046FA24
:1031D00000287EF435AF279A269BC8464FE6303349
:1031E00030228DF887308DF8862022AB0FE7129BB6
:1031F000199A13440E9375E7239BCBE5149B1D4E40
:10320000002BB6BF2D279DF877708DF877701A4B7D
:10321000FFF72FBA169A0898179B394605F052F80F
:1032200000287FF47FAEC5F101051F952C449EE573
:10323000129B199A13440A9A1A4422EAE2730E92D4
:103240000893C7E5129B0E9AC3F101031A44134673
:10325000D0E71BF0010312937FF4E2AE0E9B23EA4A
:10326000E3730893B6E500BF67666666008B4000AF
:103270001C8B4000D48A4000D08A40000A9B13B9BE
:103280001BF0010F02D0199B0133D4E701233AE769
:103290000F9D9AF80130286840EAE0700A902846AD
:1032A0000430A2460F90FEF751BE8DF87710FFF75D
:1032B00067B88DF87710FFF715BA0DF18603A6E60B
:1032C0008DF87710FFF7EBB80C9A0C2313604FF0D2
:1032D000FF330993FEF7BDBE8DF87710FFF79AB95B
:1032E0008DF87710FFF776B98DF87710FFF759B999
:1032F0008DF87710FFF712B92DE9F84F4B6E9C044B
:1033000093462FD59368126853B30E46074602F1D1
:10331000080919E920045FEA9A0817D0043D00243F
:1033200001E0A04510D0324655F8041F384602F09F
:10333000E7FC431C04F10104F3D10023CBF808306F
:10334000CBF80430BDE8F88FDBF808302AF0030A28
:10335000A3EB0A03CBF8083009F10809002BD8D1F8
:103360000020EAE702F036FE0023CBF80830CBF865
:103370000430BDE8F88F00BF93680BB1FFF7BCBF06
:1033800010B41846536010BC704700BF2DE9F04FD1
:10339000C1B01D468A4691460446089002F0CAFF15
:1033A000036815931846FEF70BFD0E9514901CB19B
:1033B000A36B002B00F05F82DAF86430BAF90C20BE
:1033C00013F0010F93B202D1990540F175829F0469
:1033D0000AD4DAF8641042F4005321F40051AAF838
:1033E0000C30CAF864109BB21E0740F12382DAF851
:1033F0001020002A00F01E8203F01A020A2A00F0B0
:103400003E8200231846119313931293259324931D
:10341000189319930B9330AB2393984616901790FB
:10342000CDF828A099F800304C46EBB1252B02D1FD
:103430001AE0252B03D014F8013F002BF9D1A4EB9F
:1034400009058DB1249B259AC8F8009001332A44C0
:10345000072BC8F804502592249300F3018208F149
:1034600008080B9B2B440B932378002B00F0F08370
:1034700000231A468DF86F3019460C939B466678E8
:103480004FF0FF3304F10109099309F10109A6F195
:103490002003582B00F2BF83DFE813F0E002BD03E6
:1034A000BD034F03BD03BD03BD03BD03BD03BD038A
:1034B00054030803BD031A02E802BD0303033A03E1
:1034C0003A033A033A033A033A033A033A033A0314
:1034D000BD03BD03BD03BD03BD03BD03BD03BD03EC
:1034E000BD03BD0349036203BD036203BD03BD0306
:1034F000BD03BD03A203BD03BD036F00BD03BD0338
:10350000BD03BD03BD035900BD03BD031E03BD03C1
:10351000BD03BD03BD03BD03BD03BD03BD03BD03AB
:10352000BD0324037302620362036203B7027302E2
:10353000BD03BD03BC02BD03C90271000D034702F8
:10354000BD035202BD035B00BD03BD031F024BF070
:10355000100B1BF0200F40F053830E9A1BF0100F3E
:10356000134640F0B4851BF0400F00F0B08514887E
:103570000432002501230E9214E04BF0100B1BF0D7
:10358000200340F032831BF0100240F089851BF0CD
:10359000400300F085850E9913460A4604320C88D4
:1035A0000E9200254FF0000A8DF86FA009994A1C71
:1035B00000F00B822BF08002069254EA050240F0E4
:1035C0000A82002940F06F84002B40F02D851BF00B
:1035D00001030D9300F0688640AF302307F8413DAA
:1035E000099B0D9A9342B8BF13460793002310938B
:1035F000BAF1000F02D0079B01330793069B13F02B
:1036000002030F9302D0079B02330793069B13F02C
:10361000840540F01B830C9B079AA3EB020BBBF1C4
:10362000000F40F31383BBF1100F2599249A28DD76
:1036300043461024A846DDF820A00A9D06E0ABF121
:10364000100BBBF1100F03F1080318DD0132B9486C
:1036500024921031072A259183E81100EFDD23AA77
:1036600029465046FFF788FE002840F06A83ABF1F8
:10367000100BBBF1100F2599249A30ABE6DC4546C0
:1036800098460132AB4B24920BEB0104072A259498
:1036900088E8080800F3CD849DF86FA008F10808B9
:1036A000BAF1000F0ED0249B013301340DF16F01EC
:1036B0000122072B2594249388E8060000F30A844E
:1036C00008F108080F9B6BB1249B013302341CA93D
:1036D0000222072B2594249388E8060000F3068431
:1036E00008F10808802D00F02E83099B0D9AA3EBAA
:1036F000020ABAF1000F3BDDBAF1100F249B8E4D88
:103700002BDD42462146B0464FF0100B2E46089C5A
:103710000A9D06E0AAF1100ABAF1100F02F10802A0
:1037200017DD01331031072B2591249382E84008DF
:10373000F0DD23AA29462046FFF71EFE002840F0B0
:103740000083AAF1100ABAF1100F2599249B30AA20
:10375000E7DC35460C464646904601335444072B79
:103760002594249388E8200400F3A98308F108082D
:10377000069BDB0500F18582249B0D99C8F800703B
:1037800001330C44072B2594C8F80410249300F34C
:10379000758308F10808069B59073BD50C9B079ACF
:1037A0009D1A002D36DD102D249B21DD1026089F4B
:1037B000DDF828A004E0103D102D08F1080817DD01
:1037C00001335C4A24931034072B259488E8440085
:1037D000F1DD23AA51463846FFF7CEFD002840F020
:1037E0003F82103D102D259C249B0DF1C008E7DC85
:1037F0000133504A24932C44072B259488E8240055
:1038000008DD23AA0A990898FFF7B6FD002840F0C2
:103810004783259C0B9B0C9A07998A42ACBF9B1847
:103820005B180B93002C40F03383002324930DF19D
:10383000C008F7E55146089801F096F8002838D0FE
:10384000DAF86430DD0704D4BAF80C309C0540F196
:10385000CA854FF0FF330B930B9841B0BDE8F08F52
:1038600023AA0A990898FFF787FD002840F01883DB
:103870000DF1C008F5E5089802F0A0F99CE5BAF949
:103880000E20002AFFF6BDADDAF86420D00705D47B
:10389000990503D4DAF8580002F060FD2B464A4639
:1038A0005146089801F01EF80B900B9841B0BDE806
:1038B000F08FBAF80C309FE5DAF8580002F04CFDB2
:1038C000BAF90C2093B282E50C980E9340420C900A
:1038D0004BF0040B99F80060D7E5002A40F0DF8731
:1038E000164B18931BF0200F40F0B9840E9A1BF072
:1038F000100F134640F0DC831BF0400F00F0D8831C
:10390000043314880E9300251BF0010F00F022836E
:1039100054EA050300F01E8330238DF870308DF8D3
:1039200071604BF0020B02233CE64BF0200B99F840
:103930000060AAE52C8B40003C8B4000EC8A4000E4
:103940000E9A176800248DF86F40151D002F00F0A7
:103950004E86099A531C00F0CC852146384603F068
:103960003FF8002800F09786C31B0D9309940E952D
:10397000CDF818B023EAE373079310949DF86FA075
:1039800036E6002A40F096871BF0200F40F05A845C
:103990001BF0100F40F0A2831BF0400F00F09E833D
:1039A0000E99B1F900400431E51722462B460E91DD
:1039B000002A73F10003C0F2878409999DF86FA073
:1039C0004A1C4FF001037FF4F5AD54EA050200F004
:1039D0006C82CDF818B0012B00F00883022B40F068
:1039E0009582189830AF230904F00F0143EA05735C
:1039F0002A091C461546435C07F8013D54EA0503B5
:103A0000F1D130ABDB1B0D93EAE54BF0400B99F89D
:103A100000603AE599F800606C2E03BF99F80160E8
:103A20004BF0200B09F101094BF0100B2DE5002A9A
:103A300040F04C871BF0200F40F03F851BF0100F2B
:103A400040F0FC801BF0400F00F0F8800E9A1368E5
:103A500004320E92BDF82C201A80E3E499F800603D
:103A600000297FF412AD012220210EE599F80060B3
:103A70002A2E09F1010000F0F186A6F13003092B8E
:103A8000814698BF002000F23D8619F8016B00EBDB
:103A9000800003EB4000A6F13003092BF5D9099013
:103AA000F5E44BF0800B99F80060EEE499F80060C3
:103AB00001222B21E9E40E9AAE4B14681893782664
:103AC000302304328DF870304BF0020B0E9200253B
:103AD0008DF87160022365E5002A40F0E486A64B6C
:103AE0001893FFE60E99CDF818B00A688DF8982063
:103AF00000230A469A468DF86F300432012307935B
:103B0000CDF824A0CDF840A00E920D9326AF75E518
:103B1000A6F13003002019F8016B00EB800003EBE5
:103B20004000A6F13003092BF5D90C90AFE4002A30
:103B300040F0C8864BF0100B26E74BF0010B99F8CC
:103B40000060A2E40E9C23680C93184600282346CC
:103B500003F10403FFF6B8AE0E9399F8006094E405
:103B6000002A40F0B7860E9D073525F0070303F1C4
:103B700008020E921A6813925B681293129B139DAF
:103B800023F00044284621464FF0FF327B4B04F0DF
:103B9000CBFB002840F0A283284621464FF0FF329D
:103BA000764B04F0A3FB002840F09883169A1398F4
:103BB000179B129904F090FB002840F035849DF883
:103BC0006FA06F4F6F4B032200212BF080000792F4
:103BD00009910690472ED8BF1F460D92109107E518
:103BE0004BF0080B99F800604FE40E9D073525F067
:103BF000070303F10802D3E900450E920023D1E444
:103C00000E9D073525F0070303F10802D3E90045AF
:103C10000E920123C6E4002A40F05086C6B100236C
:103C200001229A4607928DF89860CDF818B08DF869
:103C30006F30099310930D9226AFDFE40E9A13684C
:103C400004320E920B9A1A60FFF7ECBB259C27E515
:103C5000259BDDF828A0002B40F0948500232493B9
:103C6000DAF8643013F0010FBAF80C3002D19A057B
:103C700040F149825B063FF5ECAD0B9841B0BDE8E1
:103C8000F08F652E40F3B280169A1398179B129905
:103C900004F018FB002800F06081249B3A4AC8F821
:103CA0000020013301340122072B25942493C8F806
:103CB000042000F3BF8308F108081D9B119A259C7E
:103CC000934203DB069BDF077FF565AD249B1499C8
:103CD000159AC8F8002001330C44072BC8F80410CB
:103CE0002594249300F3F88308F10808119B5E1EC5
:103CF000002E7FF750AD102E249B244D40F3DD8124
:103D00001027DDF820A0DDF828B005E008F108084C
:103D1000103E102E40F3D18101331034072B25942F
:103D2000249388E8A000F1DD23AA59465046FFF706
:103D300023FB002840F0CD83259C249B0DF1C00877
:103D4000E6E7AA468CE70C9B079AA3EB020ABAF1B6
:103D5000000F7FF7CAACBAF1100F249B0B4D39DD71
:103D600042462146B0464FF0100B2E46089C0A9D55
:103D700015E000BFEC8A4000D88A4000FFFFEF7FCB
:103D8000CC8A4000C88A4000088B40003C8B400031
:103D9000AAF1100ABAF1100F02F1080216DD013380
:103DA0001031072B2591249382E84008F0DD23AAE7
:103DB00029462046FFF7E0FA0028C2D1AAF1100AEE
:103DC000BAF1100F2599249B30AAE8DC35460C4641
:103DD0004646904601335444072B2594249388E8A3
:103DE000200400F3648208F108087EE4119B249EFD
:103DF000012B40F3FD81013601340123072E259468
:103E00002496C8F80070C8F8043000F30E8208F158
:103E10000808149A159BC8F8003001361444072E80
:103E200025942496C8F8042000F32E8208F108088F
:103E3000179B169A1398129904F044FA119B0028C4
:103E400040F00681013B013601371C44072E2496C1
:103E50002594C8F80070C8F8043000F3D98108F13F
:103E60000808199AC8F80420013614441FAB072E1D
:103E700025942496C8F800307FF78BAC23AA0A99C2
:103E80000898FFF779FA58B9259C0DF1C00882E42B
:103E900023AA0A990898FFF76FFA00283FF4C5ACE7
:103EA000DDF828A0DCE6DDF818B0012B00F0218158
:103EB000022B27D1CDF818B00024002591E523AAC4
:103EC0000A990898FFF758FA0028E9D1259C0DF1C6
:103ED000C0084DE423AA0A990898FFF74DFA002874
:103EE000DED1259C0DF1C008FFF7ECBB23AA0A998F
:103EF0000898FFF741FA0028D2D1259C0DF1C0089F
:103F0000FFF7F0BBCDF818B00024002530A900E081
:103F10003946E20842EA4572E80804F0070305461C
:103F20001446303354EA050201F8013C01F1FF3731
:103F3000EED1069AD2077FF564AD302B3FF461AD28
:103F40003023023907F8013C30AB5B1A0D930F4662
:103F5000FFF746BB0223FFF725BB1D99002940F35D
:103F60007482109B119A9342A8BF1346002B1E46E1
:103F70000DDD249BC8F8007001333444072B2594D1
:103F8000C8F80460249300F3248308F10808109B08
:103F9000002EA8BF9B1B002B1E4640F3D080102E86
:103FA000249BC04D40F3B78022464FF0100ADDF845
:103FB00020B00A9C05E008F10808103E102E40F3DE
:103FC000A98001331032072B2592249388E820041E
:103FD000F1DD23AA21465846FFF7CEF9002840F02C
:103FE0002483259A249B0DF1C008E6E7002D08BF25
:103FF0000A2C7CD330AF204629460A22002304F045
:10400000D1F9303207F8012D2046294600230A2233
:1040100004F0C8F904460D4654EA0503EBD130AB71
:10402000DB1B0D93FFF7DCBA099B0D9330AFFFF755
:10403000D7BA23AA0A990898FFF79EF900287FF4B7
:104040002FAF9DF86FA0259C0DF1C008FFF728BB8E
:104050005F1E002F7FF705AF102F924D40F30A81AE
:104060004FF0100ADDF820B005E008F10808103F15
:10407000102F40F3FF8001361034072E259424962C
:1040800088E82004F1DD23AA0A995846FFF774F95D
:1040900000287FF405AF259C249E0DF1C008E6E7BB
:1040A0000E990A4604320C680E920025FFF77ABA80
:1040B0001C6804330E93002526E401333444072B97
:1040C0002594249388E860007FF763ABD6E604323A
:1040D0001C680E9201230025FFF764BA0E9A14683B
:1040E00013460433E5170E9322462B4660E4DDF8B1
:1040F00018B0CDF818B040AF3034012307F8414D67
:104100000D93FFF76DBADAF8580002F027F9BAF804
:104110000C30AFE5144601333444072B2594249327
:1041200088E8600040F36D8123AA0A990898FFF798
:1041300023F900287FF4B4AE259C0DF1C0081D9B27
:10414000119A934280F25881249A14981599C8F8CC
:10415000001001320444072A2594C8F80400249270
:1041600000F3528108F10808119A1099D31A561ACF
:104170009E42A8BF1E46002E0EDD249AC8F8046099
:1041800001320F443444072AC8F800702594249261
:1041900000F33C8208F10808002EACBF9E1B1E46AF
:1041A000002E7FF7F8AA102E249B3E4D85DD1027A8
:1041B000DDF820A0DDF828B005E008F10808103E81
:1041C000102E7FF77AAF01331034072B25942493F8
:1041D00088E8A000F1DD23AA59465046FFF7CCF845
:1041E000002840F07681259C249B0DF1C008E6E76D
:1041F000069BD8073FF5FFAD013601340123072E9A
:1042000025942496C8F80070C8F804307FF727AECC
:1042100023AA0A990898FFF7AFF800287FF440AE68
:10422000259C249E0DF1C0081BE623AA0A99089834
:10423000FFF7A2F800287FF433AE259C249E0DF1F1
:10424000C008E6E50E9D073525F00705D5E90023F2
:1042500005F108010E9114461D46FFF7A9BB0E9DFE
:10426000073525F0070303F108020E92D3E9004554
:10427000FFF74ABB01363C44072E2594249688E874
:10428000A0007FF7ECADC3E723AA0A990898FFF7CF
:1042900073F800287FF404AE259C249E0DF1C0081D
:1042A000C6E500BF3C8B400030AFFFF799B923AAA9
:1042B0000A990898FFF760F800287FF4F1AD259C73
:1042C0000DF1C008FFF711BA4FF02D0A644265EBFB
:1042D00045058DF86FA00123FFF768B9139C2246AE
:1042E0002046129C2346214604F01EF8002840F088
:1042F0008C82099B013326F020030D9300F09180FE
:10430000472B04D1099B002B08BF012309934BF4D1
:1043100080730693129BB3F1000A139B0793BBBFF4
:10432000534603F1004A00232D23662E0F9300F01D
:104330007F81462E00F0D4810D9B079A452B0CBF40
:10434000099B099D21A81EA908BF5D1C049003912B
:104350001DA802210290534601950091089800F093
:104360000BFC672E074640F0AF811BF0010F00F0F9
:1043700013827C19169A0798179B514603F0A2FFE7
:10438000002840F03281219BA34206D230215A1CE2
:1043900021921970219B9C42F9D8DB1B11930D9B34
:1043A000472B00F0B980652E40F376821D9B109359
:1043B000662E00F06281119B109A1946914200F31B
:1043C0004F811BF0010F40F0098222EAE27307934C
:1043D0000D9267260F9B002B40F0968009939DF865
:1043E0006FA0FFF705B9DAF8580001F0B7FF4FF0FA
:1043F000FF330B93FFF730BA069AD5077FF5B4AEBB
:10440000A2E608F108089AE623AA0A990898FEF796
:10441000B3FF00287FF444AD1D9B259C0DF1C0081F
:10442000A2E60623099372E74FF02D0A8DF86FA0DC
:10443000FFF7C7BB23AA0A990898FEF79DFF00283B
:104440007FF42EAD0DF1C00837E4249BB44AC8F8C0
:104450000020013301340122072B25942493C8F84E
:10446000042000F3248108F1080829B9119B1BB925
:10447000069BDE077FF58FA9249B1498159AC8F830
:104480000020013302462244072B2592C8F804007D
:10449000249300F3698108F108080029C0F23681ED
:1044A0001199C8F8007001338C18072B25942493B8
:1044B000C8F804107FF76DA9E0E40E9A0B99136811
:1044C000CD170846043229460E92C3E90001FEF7D3
:1044D000A9BFDA46FFF7C4BB23AA0A990898FEF7DA
:1044E0004BFF00287FF4DCAC259C0DF1C008FFF7E2
:1044F000FDBB38460994FDF763FC0E950D90CDF891
:1045000018B00346FFF736BA4FF02D0A00238DF896
:104510006FA00993FFF76FB81D9B10931A460333E2
:1045200004DB099B19469142BFF645AF023E109B42
:104530008DF87C60013B002B1D93BDBF109BC3F128
:1045400001032D222B22092B8DF87D2040F33E8183
:104550000DF18B042046734D00E0104685FB0312DD
:10456000D917C1EBA20101EB8102A3EB4202303269
:10457000092900F8012C0B4600F1FF32EDDC303345
:104580000238D9B2844202F8011C40F290810DF148
:104590007E00134601E013F8011B00F8011BA34243
:1045A000F9D101339B1A0DF17E0213441FAA9B1A05
:1045B000119A1993012A13440D9340F345810D9BE1
:1045C000149A13440D9323EAE37307930023109383
:1045D00000E723AA0A990898FEF7CEFE00287FF488
:1045E0005FAC259C0DF1C008D1E42346D5E6099BBC
:1045F0001097062B28BF06230997BA4607930E95F6
:10460000CDF818B00D93484FFEF7F2BF23AA0A99D0
:104610000898FEF7B1FE00287FF442AC1D9B119A6A
:10462000259CD31A0DF1C008B6E5A246FFF718BBCA
:1046300021A81EA9099D049003911DA803210290A1
:10464000079A019553460091089800F095FA07469D
:1046500044193B78302B00F0CA801D9D2C4489E61C
:10466000149A119B1344109A0D93002A40F3E4808E
:1046700023EAE37307936726ACE6002B40F3FB8045
:10468000099A002A40F0CE801BF0010F40F0CA804A
:1046900007930D939EE6099B07930D9309900E9542
:1046A000CDF818B010909DF86FA0FEF7A1BF23AA17
:1046B0000A990898FEF760FE00287FF4F1AB1D9977
:1046C000259C0DF1C008D0E6472E7FF452AE1BF0BA
:1046D000010F00F0DA80462E07EB0504B9D049E659
:1046E00021A81EA9099C049003911DA803210290F2
:1046F000079A019453460091089800F03DFA254628
:104700000746E8E700230993FEF7C1BE4E42103189
:10471000064D43DA1024DDF820A0DDF828B00CE0C7
:10472000088B400067666666008B40003C8B40004B
:1047300008F10808103E102E30DD01331032072B2F
:1047400025922493C8F80050C8F80440F0DD23AA4D
:1047500059465046FEF710FE00287FF4BAAE259A5F
:10476000249B0DF1C008E5E723AA0A990898FEF7F3
:1047700003FE00287FF494AB1D99259A249B0DF12C
:10478000C0088AE6089823AA5146FEF7F5FD0028DE
:104790003FF464AAFFF764BA219BFEE5013332447B
:1047A000072B88E860002592249308F108087FF71A
:1047B00077AE23AA0A990898FEF7DEFD00287FF459
:1047C0006FAB259A249B0DF1C00869E63033302287
:1047D0008DF87F308DF87E2020ABE7E6109B149A91
:1047E00013440D9323EAE37307936726F2E5169AC1
:1047F0000798179B514603F065FD00287FF42DAF05
:10480000C5F101051D952C44B4E5129B334F002BD7
:10481000B6BF4FF02D0A9DF86FA08DF86FA0304BFA
:10482000FFF7D1B9109B149A1344099A1A4422EA4B
:10483000E2730D920793CDE5109B0D9AC3F101032E
:104840001A4413460D9213E71BF0010310937FF4F3
:10485000B6AE0D9B23EAE3730793BBE50E9C99F874
:104860000160236843EAE3730993234604338146D6
:104870000E93FEF70ABE099B13B91BF0010F02D07D
:10488000149B0133D1E7012302E7219BDB1B11932A
:104890000D9B472B3FF440AE1D9B109347E68DF8D0
:1048A0006F10FFF71DB88DF86F10FFF718B90DF1F5
:1048B0007E037BE68DF86F10FFF766B88DF86F10FA
:1048C000FFF7ACB98DF86F10FFF734B98DF86F10A2
:1048D000FFF7B0B88DF86F10FFF745B9D48A4000E4
:1048E000D08A40002DE9F0410C46ADF58D6D8989E7
:1048F000666EE589199621F002010646E069ADF879
:104900000C1017464FF48061626AADF80E5098465D
:104910001AAD0023079016A80992069300950495F6
:104920000291059101F014FD43463A46694630462E
:10493000FEF72CFD051E07DB3046694601F0E6F860
:10494000002818BF4FF0FF35BDF80C305B0603D5CB
:10495000A38943F04003A381169801F0FBFC28468D
:104960000DF58D6DBDE8F08138B5304B1B680546FF
:104970000C4613B19A6B002A38D0B4F90C2093B2CC
:1049800018070CD52069A8B113F001021ED0636985
:1049900000225B42A361A260F0B1002038BDD906BD
:1049A0003CD5580726D4206942F00803A3819BB266
:1049B0000028E9D103F42072B2F5007FE4D0284644
:1049C000214601F0FBFCA3892069DDE7990758BF68
:1049D0006269A2600028E0D1B4F90C301A06DDD576
:1049E00043F04003A3814FF0FF3038BD184601F07B
:1049F000E5F8C2E7216B51B104F14003994204D0BC
:104A0000284601F001FAB4F90C20002323630023A7
:104A10002069636022F024022060C5E742F0400272
:104A200009232B604FF0FF30A28138BD08004020E1
:104A3000024B13B1024800F005B8704700000000B7
:104A40002D5C4000002301461A46184602F014BFB0
:104A500002690B69934200F38D802DE9F04F03F159
:104A6000FF3801F1140700F1140B57F828205BF808
:104A700028304FEA880483B00132B3FBF2F90BEB24
:104A80000403009407EB040A0193B9F1000F39D035
:104A900000252E46BC46DE465CF8044BDEF80030AE
:104AA000A2B209FB0255220C2C0C09FB0242ADB24A
:104AB000751B96B2C6EB134615FA83F306EB234635
:104AC0009BB243EA0643E2454FEA12454EF8043BE7
:104AD0004FEA2646E0D2009B5BF8033093B9019C75
:104AE000231F9B450CD254F8043C4BB9A4F1080396
:104AF00002E01A68043B1AB99B4508F1FF38F8D365
:104B0000C0F81080044602F0C3FA00282EDB09F139
:104B100001095D46002357F8041B28688AB29A1AD7
:104B20000B0C12FA80F2C3EB104303EB224392B258
:104B300042EA0342BA4545F8042B4FEA2343EAD23E
:104B40005BF828200BEB880382B91A1F93450BD220
:104B500053F8042C42B9083B02E01A68043B1AB926
:104B60009B4508F1FF38F8D3C4F81080484603B0DD
:104B7000BDE8F08F002070472DE9F04F016C9BB02D
:104B80000446279E92469B4641B1426C4A600123EF
:104B900093408B6002F0A4F800232364BBF1000F64
:104BA0005D4635DB002333609D4BAB4315D050464B
:104BB00059460022002303F085FB804600282DD0B3
:104BC000269A01231360289B002B00F0BD80954896
:104BD000186001381BB0BDE8F08F269A42F20F73BF
:104BE0001360BAF1000F0DD1C5F3130555B9289B19
:104BF0008D48002BEED000F10803289A13601BB0FB
:104C0000BDE8F08F289B8948002BE3D0C31CF4E754
:104C100001232BF000453360AB46C5E718AA19AB5A
:104C20000192009352465B46204602F0D1FA2B0DCA
:104C3000814671D0CBF3130242F07F51189FCDF81B
:104C400050805046A3F2FF3641F440110022784BC9
:104C500002F01CFF6CA3D3E9002303F0CBF86CA394
:104C6000D3E9002302F014FFCDE90201304603F03E
:104C70005BF869A3D3E9002303F0BCF802460B46B6
:104C8000DDE9020102F004FFCDE9040103F062FB5B
:104C9000002202900023DDE9040103F01DFB00283F
:104CA00040F07381029D162D00F25D81614B03EB94
:104CB000C503D3E9000152465B4603F02BFB0028F5
:104CC00000F0C5816B1E029300230E93BF1B7B1E59
:104CD000069300F1548100230893029B002BC0F23D
:104CE0004581069A0D9311461944002306910C93B1
:104CF000249B092B2AD8052B40F35B86043B249385
:104D00000025249B023B032B00F24286DFE813F0D0
:104D1000D403C902DF036104189F199E3E4406F2C2
:104D20003243202B40F38E81C3F1400306F2124040
:104D30009D402AFA00F0284302F0E6FF0123013EDD
:104D4000A1F1F871149381E73B4843E700216164C6
:104D50002046259101F09EFF4FF0FF330A93259ADC
:104D60000F9301230490206424920B93199B002B32
:104D7000C0F2D980029A0E2A00F3D5802D4B03EBA6
:104D8000C203D3E90023CDE90823259B002BC0F201
:104D9000BA83DDE9085650462A463346594603F0A1
:104DA00053F903F0D7FA804602F0BEFF2A46334695
:104DB00003F020F80B4602465946504602F066FEC4
:104DC000049D08F130032B700A9B012B06460F4609
:104DD00005F1010568D00022184B03F00BF8002202
:104DE000002306460F4603F06DFA002840F0888045
:104DF000CDF82C904FF0000ADFF840B00C94DDE9BC
:104E0000088928E0AFF3008061436F63A787D23F32
:104E1000B3C8608B288AC63FFB799F501344D33FA9
:104E20000000F07F098B40004C8B4000588B400005
:104E30000000F83F988B4000088B400000002440A1
:104E400002F0D8FF0022002306460F4603F03AFA8C
:104E5000002840F0C18342464B463046394603F0B5
:104E6000F3F803F077FA044602F05EFF42464B4641
:104E700002F0C0FF02460B463046394602F006FEFD
:104E800004F1300E049E05F801EBA5EB060E0A9E18
:104E9000B645CDE9060152465B46D1D1A046DDF8C4
:104EA0002C900C9C06460F4632463B46304639460F
:104EB00002F0EEFD06460F4602460B46DDE908010C
:104EC00003F00AFA48B932463B46DDE9080103F02F
:104ED000F9F9A8B118F0010F12D015F8018C049A55
:104EE0006B1E04E09A4200F0018413F8018DB8F1C2
:104EF000390F03F10105F5D008F1010883F80080AE
:104F00004946204601F0ECFE0022029B2A70269AB8
:104F100001331360289B002B00F09E8304981D60D2
:104F20001BB0BDE8F08F0B9A002A3ED0249A012ACC
:104F300040F311830A9B0C9A5F1EBA42C0F28F8322
:104F4000D71B0A9B002BC0F28B84089D0A9B089AF2
:104F50001A440892069A01211A442046069201F04A
:104F600059FF064624E001230E93AFE6089A029B00
:104F7000D21A5B420C93002308920D93B8E6C7F156
:104F80000103089300230693A7E6029D284602F03A
:104F9000CBFE02460B46DDE9040103F093F900283D
:104FA0007FF480AE6B1E02937CE60C9F089D0B9EE7
:104FB000002D0CDD069900290B4608DDA942089A50
:104FC000A8BF2B46D21AED1ACB1A089206930C9B57
:104FD000D3B10B9B002B00F0B782002F10DD3146C0
:104FE0003A46204601F0B2FF4A46014606462046B0
:104FF00001F01AFF49468046204601F071FEC14685
:105000000C9BDA1B40F0A1820121204601F002FF37
:105010000D9B002B80461CDD01461A46204601F000
:1050200095FF249B012B804640F3548200230C9370
:10503000D8F8103008EB8303186901F09BFEC0F12B
:10504000200010E0C3F120050AFA05F074E60E9086
:105050003CE6249B012B40F3878200230C930D9B9D
:105060000120002BE4D1069A104410F01F0000F03C
:10507000A180C0F12003042B40F39E84089BC0F163
:105080001C00034408931346034405440693089BFD
:10509000002B05DD49461A46204601F0A7FF814650
:1050A000069B002B05DD41461A46204601F09EFF77
:1050B00080460E9B002B40F086800A9B002B40F31D
:1050C00066820B9B002B00F09880002D05DD314699
:1050D0002A46204601F08AFF06460C9B002B40F032
:1050E000378306960A9B049ADDF818B0013BD31863
:1050F0000B930AF001030C931746C24651464846EB
:10510000FFF7A6FC31460546484601F0C1FF5A4666
:105110000A905146204601F0D7FFC268804605F14B
:105120003003002A40F02B8201464846089301F0E4
:10513000AFFF41460690204601F0D2FD069A089B3B
:1051400032B9249921B90C9A002A00F0EF83249AED
:105150000A990029C0F29F8205D1249919B90C99A6
:10516000002900F09882002A00F306830B9A3B7016
:1051700007F101089742454600F00C834946002399
:105180000A22204601F0B6FD5E45814631464FF0C9
:1051900000034FF00A02204600F0EB8101F0AAFD67
:1051A0005946064600230A22204601F0A3FD474641
:1051B0008346A3E71C20089B03440893069B0344F3
:1051C0000544069363E74146484601F061FF002825
:1051D000BFF673AF029F494600230A222046013FD3
:1051E000029701F087FD0B9B8146002B40F0B683B0
:1051F0000F9B002B40F3BF830A93DDF810B00A9F8A
:105200005D4602E001F076FD814641464846FFF7E3
:105210001FFC00F1300A05F801ABA5EB0B03BB4204
:105220004FF00A024FF0000349462046EADB049B98
:105230000A9A012AACBF9B1801331D464FF0000BA0
:1052400049460122204601F0D1FE4146814601F047
:105250001FFF002840F33D8215F8012C04996B1EB6
:1052600004E08B4200F0AE8113F8012D392A03F1DE
:105270000105F6D001321A704146204601F030FD9A
:10528000002E3FF43DAEBBF1000F05D0B34503D077
:105290005946204601F024FD3146204601F020FD0C
:1052A0002EE600230B93029B259A13440F930133A0
:1052B000012B1F461E460A93B8BF01270021172F56
:1052C00061640AD9012204235B0003F114008742C0
:1052D000114602F10102F7D26164204601F0DAFCC6
:1052E0000E2E049020643FF641AD002D3FF43EADFC
:1052F00002990029CDE910AB40F30282B84B01F0CE
:105300000F020D1103EBC203E906D3E9006740F178
:10531000AE81B44B50465946D3E9082302F094FEBF
:10532000CDE9120105F00F054FF0030A8DB1DFF84A
:10533000B482EA0709D530463946D8E9002302F09D
:1053400059FD0AF1010A06460F466D1008F10808DA
:10535000EFD13B463246DDE9120102F075FE074609
:1053600088460E9B43B100229F4B3846414602F0CF
:10537000B3FF002840F08682504602F0D5FC3A4642
:10538000434602F037FD994B002202F081FB0A9B55
:105390000546A1F15076002B00F03E81029B15934B
:1053A0000A9B12930B9B002B00F0FA81129A8C4BF4
:1053B0008F4903EBC20353E90223002002F044FEAD
:1053C0002A46334602F062FB82468B463846414607
:1053D00002F0C0FF054602F0A7FC02460B46384625
:1053E000414602F053FB30355FFA85F8049D0646CE
:1053F0000F4685F8008002460B4650465946013557
:1054000002F088FF002854D132463B4600207649FE
:1054100002F03CFB02460B465046594602F07AFF2A
:10542000002840F07082129A012A00F01181129B2C
:10543000049ACDF84890134499460DE000206A493B
:1054400002F024FB52465B4602F046FF002840F083
:1054500058824D4500F0FA80504659460022654B6F
:1054600002F0C8FC0022634B82468B463046394628
:1054700002F0C0FC0F46064602F06CFF804602F0C8
:1054800053FC02460B463046394602F0FFFA08F15B
:1054900030085FFA88F852465B4605F8018B0646ED
:1054A0000F4602F019FF32463B460028C6D0DDF811
:1054B0004890159B029323E500230B93259B002B1B
:1054C00040F3DC801F461E460F930A93F6E6012345
:1054D0000B93F3E7BAF1000F7FF4A8ADCBF31303FE
:1054E000002B7FF4BAAD2BF000473F0D3F05002F96
:1054F00000F00D82089B01330893069B013306934D
:1055000001230C93ABE50A9B002B3FF742AC40F024
:1055100021820022384BDDE9080102F06BFC524683
:105520005B4602F0EDFEDDF828804646002841D0BB
:10553000259B049DDB4302934146204601F0D0FBAE
:10554000002E3FF4DDACA7E60C9A4946204601F058
:10555000FDFC814658E5149A002A00F0878103F289
:1055600033430C9F089DF2E4BAF1000F7FF475AD50
:10557000B4E701F0BFFB474606468346BEE5014659
:105580002046069301F0ACFB0122069BE0E5249B3C
:10559000022B7FF796AD0A9B002BC9D1414605220D
:1055A000204601F0A7FB01468046484601F070FD09
:1055B0000028BDDD029A04993123013202920B705A
:1055C0004D1CB9E7029A01320292049A31231370FA
:1055D00052E601230B9366E6DDF82C900C9C8FE4D9
:1055E000988B4000708B40000000F03F00001C4092
:1055F0000000E03F0000244000001440504602F04C
:1056000093FB3A46434602F0F5FB0022C14B02F001
:105610003FFA0546A1F1507641460022BE4B38467E
:1056200002F034FA2A46334682468B4602F072FE76
:105630008046002840F010812A4606F1004350467B
:10564000594602F049FE18B1464671E7DDF8489028
:10565000DDE910ABFFF78ABB0498FFF7BBBA0C9BE0
:105660000D9A0C97FB1A1A440D92002769E4DDE9A4
:1056700010234FF0020ACDE9122357E6002101233F
:1056800061642046259301F005FB259B049020646E
:105690000A930F9329E6002AD046CDF818B09A460F
:1056A00011DD49460122204601F0A0FC4146814619
:1056B00001F0EEFC002840F34681BAF1390F00F00A
:1056C000068105F1310AB34687F800A07D1C069ECD
:1056D000D2E504D11AF0010F01D0BDE5154615F849
:1056E000013C302B05F1FF32F8D0C5E5049930229A
:1056F0000A70029A15F8018C01320292FFF7FCBB86
:1057000000F0BB80029B5D42844B05F00F0203EB6F
:10571000C203D3E90023DDE9100102F06BFB2D1178
:105720000746884600F02C817D4E4FF0020AEB07B9
:1057300009D538464146D6E9002302F05BFB0AF161
:10574000010A074688466D1006F10806EFD108E603
:105750007168204601F09EFA336902339A000546CB
:1057600006F10C010C3001F08BF92946012220468C
:1057700001F03CFC0690B5E4392BCDF818B0D046CA
:1057800000F0A58003F1010AB34687F800A07D1C54
:10579000069E71E55A46D046B3469A4616464FE5F0
:1057A000129B5E4901EBC3012A46334651E90201CF
:1057B00002F020FBCDE916013846414602F0CAFD51
:1057C000054602F0B1FA0B4602464146384602F061
:1057D0005DF9129B0F4604993035012B0D7006467A
:1057E00001F1010526D0129B049ADFF83CB1CDF8F7
:1057F000489013444FF0000A994652465B463046A3
:10580000394602F0F7FA0F46064602F0A3FD80463D
:1058100002F08AFA08F1300802460B463046394653
:1058200002F034F905F8018B4D4506460F46E4D1E8
:10583000DDF848903B4B0022DDE9160102F028F923
:1058400032463B4602F048FD002846D0159B0293A5
:1058500015F8018CFFF743BB4FF000084646A9E658
:10586000089B0A9A9D1A0023FFF771BB189B0C9F97
:10587000089DC3F13603FFF76ABBDDE910784FF0EE
:10588000020A6EE50A9B002B3FF4B8AE0F9B002B7B
:105890007FF7DEAE0022244B3846414602F0AAFADA
:1058A000074688460AF1010002F03EFA3A464346AE
:1058B00002F0A0FA0022174B02F0EAF8029A0F9BBE
:1058C0001293013A0546A1F1507615926AE5392204
:1058D000B3463A70069E7D1CC0E4DDE91623002025
:1058E000104902F0D3F832463B4602F013FD08B9E6
:1058F000AEE6154615F8013C302B05F1FF32F8D025
:10590000D7E5DDF84890159B0293FFF7E8BA0C97AE
:10591000FFF7A5BB00001C4000001440988B40001E
:10592000708B40000000E03F00002440392BCDF890
:1059300018B0D046DDF828B09A46C8D0BBF1000FA9
:105940003FF7BFAEBFE67FF4BEAE1AF0010F3FF4E3
:10595000BAAEB2E64FF000084646E9E5314600230C
:105960000A22204601F0C6F90F9B002B06460ADDED
:105970000A93FFF7AABB249B022B23DC0F9B3BE47B
:105980004FF0020AEDE4249B022B1BDC0F9BEFE798
:10599000002565642946204601F07CF94FF0FF336D
:1059A0000A930F9301230490259520640B93FFF72E
:1059B000DDB90125FFF7A5B93FF469ABC0F13C00A3
:1059C000FFF7F9BB0F9B0A93E5E500BFB1F90C3077
:1059D0009AB22DE9F0410D46110780463AD46A6823
:1059E00043F40063002AAB816FDDAC6A002C49D020
:1059F00000229BB2D8F80060C8F8002013F480524F
:105A000067D02A6D5F0705D569682B6B521A0BB1F9
:105A1000EB6BD21A0023E9694046A047441C3CD0F6
:105A2000B5F90C302A692A6023F400630022AB81A7
:105A3000DB046A6047D4296BC8F8006011B305F134
:105A40004003994202D0404600F0DEF9002028636E
:105A5000BDE8F0812E69AEB12C682E6091070CBFB5
:105A60006B690023A41BAB600AE0234632466F6AD1
:105A7000E9694046B8470028A4EB0004064404DD69
:105A8000002CF2DC0020BDE8F081AB8943F040033C
:105A9000AB814FF0FF30BDE8F081D8F800401D2CFD
:105AA000F3D8194BE340DB4313F00103EDD1B5F913
:105AB0000C206B6022F400632969AB81DA04296051
:105AC000B9D5002CB7D12865B5E7EA6B002A8CDC84
:105AD000D8E70123E9694046A047431C024602D0AB
